:020000040000fa
:10000000f07f0020152300009b2500009b250000a9
:1000100000000000000000000000000000000000e0
:100020000000000000000000000000009b25000010
:1000300000000000000000009b250000ff1d0000e4
:100040009b2500009b2500009b2500009b250000b0
:100050009b250000590700009b2500009b25000000
:100060009b2500009b2500009b2500009b25000090
:100070009b2500009b2500009b2500009b25000080
:100080009b2500009b2500009b2500009b25000070
:100090009b2500009b2500009b2500009b25000060
:1000a0009b2500009b2500009b2500009b25000050
:1000b0009b2500009b2500009b2500009b25000040
:1000c0009b2500009b2500009b2500009b25000030
:1000d0009b2500009b2500009b2500009b25000020
:1000e0009b2500009b2500009b2500009b25000010
:1000f0009b2500009b2500009b2500009b25000000
:100100009b2500009b2500009b2500009b250000ef
:100110009b2500009b2500009b2500009b250000df
:100120009b2500009b2500009b2500009b250000cf
:100130009b2500009b2500009b2500009b250000bf
:100140009b2500009b2500009b2500009b250000af
:0c0150009b2500009b2500009b25000063
:020000040000fa
:10015c00f8b5c046f8bc08bc9e4670474125000067
:10016c00f8b5c046f8bc08bc9e4670471d2500007b
:020000040000fa
:10017c0080b582b000af0200fb1d1a70fb1d1b780e
:10018c007f2b12d8fb1d1b781a001f231a4011005d
:10019c004ef20013cef20003fa1d127852b252093d
:1001ac000120884001009200d150c046bd4602b0eb
:1001bc0080bd90b583b000af02003960fb1d1a7092
:1001cc00fb1d1b787f2b2fd84ef20013cef20003b1
:1001dc00fa1d127852b29208c0329200d358fa1d0e
:1001ec001278110003220a40d200ff2191400a002c
:1001fc00d2431a4010003b689b01ff221a40fb1da2
:10020c001b78190003230b40db009a4011004ef2bf
:10021c000013cef20003fa1d127852b29208014379
:10022c00c0329200d15037e04ef60053cef20003ac
:10023c00fa1d127811000f220a40083a9208063271
:10024c0092009b1804331b68fa1d127811000322cc
:10025c000a40d200ff2191400a00d2431a401000fc
:10026c003b689b01ff221a40fb1d1b7819000323de
:10027c000b40db009a404ef60053cef20003f91d02
:10028c0009780c000f2121400839890802430631f6
:10029c0089005b1804331a60c046bd4603b090bd9c
:1002ac0080b582b000af00237b6040f20043c4f203
:1002bc00000301229a7140f20043c4f200030222af
:1002cc009a7000e0c04640f20043c4f200039b79f0
:1002dc00dbb21a0001231340002bf3d040f2004391
:1002ec00c4f2000301229a7145f20003c4f2001318
:1002fc0004225a6041f60003c4f2000340f20232b9
:10030c001a6200e0c04641f60003c4f20003da684a
:10031c008023db021340002bf4d041f20003c4f223
:10032c00000300221a8600e0c04641f20003c4f22a
:10033c0000031a6980235b041340002bf4d046f2af
:10034c002003c0f280031b687b607a68fc23db050a
:10035c0013407b607b68db0b7b607b6840f2002288
:10036c0013437b6041f20003c4f200037a685a63c2
:10037c0000e0c04641f20003c4f200031a69802376
:10038c005b041340002bf4d041f20003c4f20003d1
:10039c001b8e9ab241f20003c4f2000302210a43fd
:1003ac0092b21a8600e0c04641f20003c4f2000388
:1003bc001a6980235b041340002bf4d041f60043f0
:1003cc00c4f2000340f205129a6200e0c04641f606
:1003dc000043c4f200035b6810221340002bf5d1dc
:1003ec0041f60043c4f2000340f20712c0f20202cd
:1003fc001a6200e0c04641f60043c4f200035b6899
:10040c0004221340002bf5d1c046bd4602b080bd7e
:10041c0080b500af41f60043c4f2000390224221a4
:10042c00995000e0c04641f60043c4f2000390220c
:10043c009b5842221340002bf4d042f60023c4f206
:10044c00000301221a7000e0c04642f60023c4f2f9
:10045c0000035b6801221340002bf5d142f6002308
:10046c00c4f200030f225a63c046bd4680bd80b55e
:10047c0000af42f60023c4f200031b78dab242f656
:10048c000023c4f2000302210a43d2b21a7000e026
:10049c00c04642f60023c4f200035b6802221340fc
:1004ac00002bf5d1c046bd4680bd80b500af40f2f3
:1004bc000023c4f2002301221a70c046c046c04675
:1004cc00c046bd4680bd80b500af43f20023c4f2e8
:1004dc0000039a6843f20023c4f2000348f20001bf
:1004ec000a439a6043f20023c4f200034f229b5c40
:1004fc00dab243f20023c4f2000302210a43d1b260
:10050c004f229954c046bd4680bd80b500af01e076
:10051c0000f093fa41f60043c4f200239b7adbb25d
:10052c001a0010231340002bf2d041f60043c4f202
:10053c00002310229a72c046bd4680bd80b500af24
:10054c0041f60043c4f20023db7adbb21a0001232c
:10055c0013405bb941f60043c4f200231a6841f61c
:10056c000043c4f2002302210a431a6041f60043ff
:10057c00c4f200239b7adbb21a00012313405bb157
:10058c0041f60043c4f2002301229a7240f2a60302
:10059c00c2f2000301221a7040f2a603c2f2000359
:1005ac001b78002b00d1c9e040f2ac03c2f200036f
:1005bc001b78042b00d9bbe09a00624bd3181b6844
:1005cc009f4643f20023c4f2000348f200025a6132
:1005dc00aee040f2a703c2f200031b786bb143f20a
:1005ec000023c4f2000348f200025a6141f60043b2
:1005fc00c4f20023544a9a830de043f20023c4f260
:10060c00000348f200029a6141f60043c4f2002351
:10061c0041f250229a8340f2a703c2f200031b78e6
:10062c005a1e9341dbb201225340dbb21a1c012348
:10063c001340dab240f2a703c2f200031a7077e05b
:10064c0040f2a703c2f200031b7873b143f20023fc
:10065c00c4f2000348f200025a6141f60043c4f2ae
:10066c00002344f63e129a830de043f20023c4f2b9
:10067c00000348f200029a6141f60043c4f20023e1
:10068c0041f250229a8340f2a703c2f200031b7876
:10069c005a1e9341dbb201225340dbb21a1c0123d8
:1006ac001340dab240f2a703c2f200031a703fe023
:1006bc0040f2a703c2f200031b7873b143f200238c
:1006cc00c4f2000348f200025a6141f60043c4f23e
:1006dc00002342f29f429a830de043f20023c4f2be
:1006ec00000348f200029a6141f60043c4f2002371
:1006fc0041f250229a8340f2a703c2f200031b7806
:10070c005a1e9341dbb201225340dbb21a1c012367
:10071c001340dab240f2a703c2f200031a7007e0ea
:10072c0043f20023c4f2000348f200029a61c0466f
:10073c0040f2a603c2f2000300221a70c046bd4666
:10074c0080bdc046cc260000cca4ffff80b500af16
:10075c0040f2a403c2f200031b889bb20322934312
:10076c009ab240f2a403c2f200031a8042f60023ac
:10077c00c4f200039b6b0422134073b940f2a40330
:10078c00c2f200031b889bb2012213439ab240f2bf
:10079c00a403c2f200031a800de040f2a403c2f2db
:1007ac0000031b889bb2022213439ab240f2a403ab
:1007bc00c2f200031a8042f60023c4f200035a6905
:1007cc0042f60023c4f2000304210a435a61c046d6
:1007dc00bd4680bd80b500af43f20023c4f20003d8
:1007ec005a6843f20023c4f20003802109040a432f
:1007fc005a6043f20023c4f2000357229b5cdab226
:10080c0043f20023c4f2000307210a43d1b257225a
:10081c00995443f20023c4f200039a6943f2002373
:10082c00c4f2000301210a439a6143f20022c4f28c
:10083c00000243f20023c4f200033b21525cd1b20c
:10084c003b22995442f60023c4f200031a6b42f681
:10085c000023c4f2000304210a431a6342f6002366
:10086c00c4f20003da6942f60023c4f200030c4917
:10087c000a40da6142f60023c4f20003da6942f658
:10088c000023c4f2000340f600310a43da6142f659
:10089c000023c4f2000304221a61c046bd4680bd89
:1008ac00fff0ffff80b582b000afba1d40f2a40389
:1008bc00c2f200031b88138040f2a403c2f20003af
:1008cc0000221a80bb1d1b881800bd4602b080bddb
:1008dc0080b500afbff35f8f62b603210520fff731
:1008ec0068fc01235b4203211800fff762fc052022
:1008fc00fff73efc01235b421800fff739fcc046b2
:10090c00bd4680bd80b500affff7cafcfff7cdfd3b
:10091c00fff77efd00f00ff8fff75cfffff7d3fd4c
:10092c0000f09af8fff7a3fd01f0b7fafff7d0ff3c
:10093c00c046bd4680bd80b500af41f60043c4f251
:10094c000003dc229a5841f60043c4f20003402114
:10095c000a43dc215a50c04641f60043c4f200035e
:10096c00dc229b5840221340002bf5d041f600436b
:10097c00c4f200231a6841f60043c4f2002301219b
:10098c000a431a60c04641f60043c4f200231b69b7
:10099c0001221340002bf6d141f60042c4f2002292
:1009ac0041f60043c4f2002312681a6041f600437a
:1009bc00c4f200231a6841f60043c4f2002310214c
:1009cc000a431a6041f60043c4f200231a6841f648
:1009dc000043c4f2002340f200710a431a6041f64e
:1009ec000043c4f200231b7bdab241f60043c4f28d
:1009fc00002301210a43d2b21a7341f60043c4f218
:100a0c00002341f250229a8341f60043c4f20023a2
:100a1c001a6841f60043c4f2002302210a431a600b
:100a2c00c04641f60043c4f200231b690222134066
:100a3c00002bf6d1c046bd4680bd80b582b000af5c
:100a4c003b00180001f061fa3b00180000f046fa78
:080a5c00c046bd4602b080bd9a
:020000040000fa
:100a640080b500af40f60003c4f20003da6940f633
:100a74000003c4f2000310210a43da6141f6004383
:100a8400c4f20003d02242219950c04641f60043eb
:100a9400c4f20003d0229b5840221340002bf5d00f
:100aa40040f25003c2f200032c220021180001f08e
:100ab4001ffe40f25003c2f2000341f20002c4f2ee
:100ac40000221a6041f20003c4f2002301221a60da
:100ad400c04641f20003c4f20023db690122134043
:100ae400002bf6d141f20003c4f2002304221a6061
:100af40041f20003c4f200231a6841f20003c4f275
:100b040000238021c9050a431a6041f20003c4f29c
:100b140000231a6841f20003c4f200238021490330
:100b24000a431a6041f20002c4f2002241f20003b7
:100b3400c4f2002352685a6041f20003c4f2002355
:100b44001a6841f20003c4f20023802149040a43d5
:100b54001a6041f20002c4f2002241f20003c4f21e
:100b6400002352685a6041f20002c4f2002241f2aa
:100b74000003c4f2002312681a6041f20002c4f2b6
:100b8400002241f20003c4f2002312681a6041f209
:100b94000002c4f2002241f20003c4f200235268ae
:100ba4005a6041f20002c4f2002241f20003c4f28e
:100bb400002352685a6041f20002c4f2002241f25a
:100bc4000003c4f2002392689a6041f20003c4f265
:100bd4000023404a9a8140f25003c2f200030022eb
:100be4005a6240f25003c2f2000344f61c62c0f29f
:100bf4000e029a6241f20003c4f200235a6841f2e1
:100c04000003c4f20023c32109040a435a60c04606
:100c140041f20003c4f20023db6904221340002bd9
:100c2400f6d143f20023c4f20003c8229b5cdab27b
:100c340043f20023c4f2000303210a43d1b2c822c1
:100c4400995443f20023c4f20003b4229b5cdab249
:100c540043f20023c4f2000303210a43d1b2b422b5
:100c6400995443f20023c4f20003c9229b5cdab214
:100c740043f20023c4f2000303210a43d1b2c92280
:100c8400995443f20023c4f20003b4229b5cdab209
:100c940043f20023c4f2000330210a43d1b2b42248
:100ca400995441f20003c4f200231a6841f200038c
:100cb400c4f2002302210a431a60c04641f2000331
:100cc400c4f20023db6902221340002bf6d1c04694
:100cd400bd4680bd05c5ffff80b582b000af78601a
:100ce4007b685b6963b17b685b690122da807b683e
:100cf4005b697a68128c92b21a817b6800225a610d
:100d04007b6800229a617b680022da617b6800229a
:100d14001a84c046bd4602b080bd90b587b000af0e
:100d2400786039601623fb1800221a801523fb18fb
:100d340000221a707b681b681b7edbb21a00012339
:100d44001340002b50d07b681b8a9bb283b17b6815
:100d5400db68591c7a68d1601b78dab27b681b683f
:100d64009a627b681b8a9bb2013b9ab27b681a82a7
:100d74007b681b8a9bb2002b36d17b680022da6029
:100d84007b681b899bb22bb37b685b681a687b68a2
:100d9400da607b685b689b889ab27b681a827b689e
:100da4005b6808331a007b685a607b681b899bb2b6
:100db400013b9ab27b681a817b68db681bb17b6854
:100dc4001b8a9bb283b97b680022da607b680022ad
:100dd4001a8209e07b681b6801221a757b6800226d
:100de4005a607b680022da607b681b681b7edbb27a
:100df4001a000423134073b17b681b685b8b9ab29f
:100e04001623fb1836490a431a807b681b689a6ac2
:100e14001523fb181a707b685b69002b59d01623c5
:100e2400fb181b8848f20302134048f20002934265
:100e340013d17b685b691a687b681b8c9bb2591c55
:100e440088b279680884d3181522ba1812781a70ef
:100e54007b683a68183303ca03c37b681b685b8bdf
:100e64009bb21ab21623fb1800215b5ef7210b40dc
:100e74001bb213431ab27b681b6892b25a837b6815
:100e84001b8c9ab27b685b699b889bb29a4204d3a1
:100e94007b681800fff720ff1ce07b681b8c9bb26b
:100ea400cbb17b6818331a0039680c243b1918003d
:100eb40001f073f87b6824331a003b191100180001
:100ec40000f06fff031e06db7b681800fff704ffca
:100ed40000e0c046c046c046bd4607b090bdc0460f
:100ee4000080ffff80b582b000af78607a6840f27e
:100ef4005003c2f2000311001800fff70effc046b2
:100f0400bd4602b080bd80b582b000af78607b681a
:100f14001b8a9bb25bb97b681b899bb23bb97b681c
:100f24001b681b7edbb21a00012313400bb901239b
:100f340000e000231a1c01231340dbb21800bd4655
:100f440002b080bd80b588b000aff860b9607a6047
:100f54001e23fb18082252421a80bb680bb17b681f
:100f64000bb901233ae07b68202b01d9002335e03b
:100f7400fb681800fff7c7ff03000bb100232de047
:100f84000023bb6100237b611ce0bb69db00ba6802
:100f9400d3189b881e22ba1812889a4201d20023c1
:100fa4001ce0bb69db00ba68d3189a881e217b1841
:100fb400791809888a1a1a807b6901337b61bb69b5
:100fc4000133bb61ba697b689a42ded3fb68ba68b5
:100fd4005a607b689ab2fb681a8101231800bd46e7
:100fe40008b080bd80b582b000af78607b68002215
:100ff4001a817b6800225a607b6800221a827b680f
:101004000022da60c046bd4602b080bd80b582b021
:1010140000af786039603a68796840f25003c2f2f0
:1010240000031800fff78eff03001800bd4602b04e
:1010340080bd80b500af40f25003c2f20003180037
:10104400fff761ff03001800bd4680bd80b500af07
:1010540040f25003c2f200031800fff7c3ffc0467a
:10106400bd4680bd80b582b000af78607b685b69a7
:101074005a1e9341dbb21800bd4602b080bd80b554
:1010840082b000af786039603b685bb13b681b6835
:1010940043b13b689b882bb13b689b884ff6f87241
:1010a400934201d9002316e07b685b690bb10023ee
:1010b40011e03b680022da803b6800221a817b68d9
:1010c40000221a847b681833180000f022ff7b6822
:1010d4003a685a6101231800bd4602b080bd80b54c
:1010e40082b000af78607a6840f25003c2f2000325
:1010f40011001800fff7c3ff03001800bd4602b03b
:1011040080bd80b500af40f25003c2f20003180066
:10111400fff7a8ff03001800bd4680bd80b500afef
:1011240040f25003c2f200031800fff7d5fdc04699
:04113400bd4680bd77
:020000040000fa
:1011380080b582b000af78607b68882200211800f3
:1011480001f0d4fafff7e0fb7b6876331a007b687e
:101158009a667b686c22102199527b686833180064
:10116800fff7bbffc046bd4602b080bd80b582b068
:1011780000af78600a00fb1c1a70fb1c1b789bb13f
:1011880040f2ac03c2f200031b78032b0cd840f2e8
:10119800ac03c2f200031b780133dab240f2ac03ad
:1011a800c2f200031a7017e0fb1c1b78012253409f
:1011b800dbb28bb140f2ac03c2f200031b785bb127
:1011c80040f2ac03c2f200031b78013bdab240f2f2
:1011d800ac03c2f200031a707a6841f6d413c0f265
:1011e800000353607b6808221a8140f2ac03c2f204
:1011f80000031b781a0040f2c803c2f200039200f1
:10120800d2587b68da6040f2ac03c2f200031b7864
:101218001a0040f2c803c2f200039200d358180023
:1012280001f022fa03009ab27b681a827b680433c1
:1012380002211800fff7e8fe40f2ac03c2f20003f7
:101248001b786bb943f20023c4f200035a6943f2d6
:101258000023c4f2000348f200010a435a6116e071
:1012680040f2ac03c2f200031b78042b0dd143f209
:101278000023c4f200039a6943f20023c4f2000376
:1012880048f200010a439a6101e0fff759f9c046a4
:10129800bd4602b080bdf0b585b000af78600e23c2
:1012a800fb1800221a800a23fb1800221a800c233c
:1012b800fb1800221a80fff7c2fb40f2b003c2f20b
:1012c80000031b68abb97a6841f29463c0f200036b
:1012d80053607b6840f2d0221a817b680433012175
:1012e8001800fff791fe40f2b003c2f2000301229a
:1012f8001a600e257c19fff7d7fa030023807b19a3
:101308001b88002b3bd07b191b8801221340c3b1db
:101318007a6841f6e013c0f2000353607b68082244
:101328001a817a6841f6ec13c0f20003d3607b6837
:1013380009221a827b68043302211800fff764fe31
:101348001de00e23fb181b8802221340bbb17a68ec
:1013580041f6e013c0f2000353607b6808221a814b
:101368007a6841f6f813c0f20003d3607b6809225b
:101378001a827b68043302211800fff745fe7b6858
:101388006e229b5a9bb2012b00d07de009203b18ae
:101398007a687621525c1a703b181b78052b10d19d
:1013a8007a6841f29463c0f2000353607b6840f2ac
:1013b800d0221a817b68043301211800fff724fe2c
:1013c80054e00923fb181b781b2b1ed17b68702265
:1013d8009b5a9bb2022b45d97b6877229b5c5b2b7f
:1013e80040d17b6878229b5c432b07d0442b3dd1ae
:1013f8007b6800211800fff7b9fe34e07b68012103
:101408001800fff7b3fec0462de00922bb181b7871
:10141800612b03d0bb181b78412b05d17b680021b9
:101428001800fff7a3fe1ee00922bb181b78442b07
:1014380003d0bb181b78642b05d17b6801211800e9
:10144800fff794fe0fe07b681b88022213439ab2d1
:101458007b681a807b6870229b5a99b27b687422d9
:10146800995203e0c04601e0fff7e9fafff7dffd14
:101478000300002bf8d17b686e22002199527b680b
:1014880068331800fff729fe7b681b881a000123c0
:10149800134053b3fff7cbfd030043bb7b681b88a6
:1014a8001bb2002b10db7a6841f29463c0f2000390
:1014b80053607b6840f2d0221a817b681b886c4a93
:1014c80013439ab27b681a807b68043301211800a1
:1014d800fff79afd03005bb17b681b8847f6fe7235
:1014e80013409ab27b681a8002e0c04600e0c0460a
:1014f8007b681b881a0002231340002b00d1afe041
:10150800fff795fd0300002b00d0abe07b681b883c
:101518001bb2002b00da89e07a6841f66813c0f242
:10152800000353607b680c221a817a6841f67813ad
:10153800c0f2000353617b6808221a837b68243356
:1015480040220021180001f0d1f87b6874229b5ad0
:10155800002b57d07b6800221a827b6824331a003c
:101568007b68da600e23fb1800221a800c23fb1814
:1015780000221a8033e00e257b191a880823fb18ed
:10158800796876208a18121812781a707b682433c2
:101598001a000c26bb191b88d018bb191b883f22c0
:1015a800d41a7b191b887a687621d3185b181b78a4
:1015b80041f60422c0f20002210001f06df8020099
:1015c8000a203b181a80bb19b9193a1809881288d9
:1015d8008a181a807b197a19128801321a807b6856
:1015e80074229b5a0e22ba1812889a4204d20c23eb
:1015f800fb181b883e2bbed97b680c22ba181288b0
:101608001a8208e07b6807221a827a6841f6142356
:10161800c0f20003d3607b681b88154a13439ab253
:101628007b681a807b687422002199527b68043396
:1016380003211800fff7e8fc0300abb17b686e22ba
:10164800002199527b6868331800fff746fd7b68d4
:101658001b8847f6fd7213409ab27b681a8002e035
:10166800c04600e0c046c046c046bd4605b0f0bd15
:101678000080ffff80b5a2b000af3b001800fff765
:0c16880057fd3b001800fff706fefae7d4
:020000040000fa
:101694001b5b306d1b5b324a1b5b313b31482b2d8e
:1016a4002d2d2d2d2d2d2d2d2d2d2d2d2d2d2d2d66
:1016b4002d2d2d2d2d2d2d2d2d2d2d2d2d2d2d2d56
:1016c4002d2d2d2d2d2d2d2d2d2d2d2d2d2d2d2d46
:1016d4002d2d2d2d2d2d2d2d2d2d2d2d2d2d2d2d36
:1016e4002d2d2d2b0d0a7c20454545203135383aca
:1016f40020456c656374726963616c20616e64205b
:10170400456c656374726f6e69637320456e6769b7
:101714006e656572696e67204c61626f7261746f89
:1017240072792056202020202020207c0d0a7c2045
:1017340020202020202020202041636164656d69e1
:1017440063205965617220323032342d32303235a3
:101754002c2053656d657374657220312020202020
:101764002020202020202020202020202020202075
:101774002020207c0d0a7c202020202020202020d6
:101784002020202020202020202020202020202055
:101794002020202020202020202020202020202045
:1017a4002020202020202020202020202020202035
:1017b40020202020202020202020207c0d0a7c2096
:1017c400536f6c7574696f6e3a2047726164656417
:1017d40020457865726369736520202020202020cd
:1017e40020202020202020202020202020202020f5
:1017f40020202020202020202020202020202020e5
:101804002020207c0d0a7c20202020202020202045
:1018140020202020202020202020202020202020c4
:1018240020202020202020202020202020202020b4
:1018340020202020202020202020202020202020a4
:1018440020202020202020202020207c0d0a7c2005
:10185400417574686f723a2020454545203135380a
:101864002048616e646c6572732028416c6d6172ee
:10187400696f2c2064652056696c6c612c204e695c
:10188400657276612c205369736f6e2c20547573c6
:101894006f29207c0d0a7c20446174653a20202045
:1018a400203231204f637420323032342020202003
:1018b4002020202020202020202020202020202024
:1018c4002020202020202020202020202020202014
:1018d40020202020202020202020207c0d0a2b2db9
:1018e4002d2d2d2d2d2d2d2d2d2d2d2d2d2d2d2d24
:1018f4002d2d2d2d2d2d2d2d2d2d2d2d2d2d2d2d14
:101904002d2d2d2d2d2d2d2d2d2d2d2d2d2d2d2d03
:101914002d2d2d2d2d2d2d2d2d2d2d2d2d2d2d2df3
:101924002d2d2d2b0d0a0d0a4f6e2d626f617264e1
:1019340020627574746f6e3a205b52656c656173d6
:1019440065645d0d0a426c696e6b2053657474693d
:101954006e673a205b2020204f464620205d0d0a0a
:101964000000c0461b5b31313b3139481b5b304bb7
:101974000000c0461b5b31323b3137480000c04693
:101984005b2020204f464620205d0d0a0000c04603
:101994005b2020534c4f5720205d0d0a0000c046a9
:1019a4005b204d454449554d205d0d0a0000c0465d
:1019b4005b20204641535420205d0d0a0000c046a0
:1019c4005b2020204f4e2020205d0d0a0000c046e1
:1019d4001b5b31323b3136480000c0461b5b313162
:1019e4003b3139480000c046507265737365645dcd
:1019f4002000c04652656c65617365645d00c04635
:101a04002530325820507265737365640000c046f7
:0c1a14003c4e6f6e653e20786400c046ba
:020000040000fa
:101a20000023f0b506001500b1b0079103930799a4
:101a30000b78002b00d10ae101235b420c9310ab21
:101a400000240e9380230b940d940f930b5d0bb128
:101a5000252b29d134b12200300000f0e6fd079b90
:101a60001b190793079b1a78252a00d0e4e040f25f
:101a7000020c012110270133049307930798037880
:101a80002b2b1ad025d8202b1ad0232b1dd02a2b54
:101a900028d000f063fd0d90079b1a78303a092a90
:101aa00031d801330793f7e70134cfe70b9b059358
:101ab0000b4301300b930790e0e704230b9a0fe0f0
:101ac0000b9b0593059a08230ae00b9b05933b4368
:101ad000efe72d2bead0302bd9d162460b9b059333
:101ae0001343e6e72b6801301a1d1b6807902a6034
:101af0000d93002b07da0b9a5b42059201220599a0
:101b00000d934a400b920b9bda0702d502229343b6
:101b10000b93079b1a782e2a0ed10022581c0c9288
:101b200007905a782a2a27d1023307932b681a1d67
:101b30001b682a6005930c9307a800f02ffd079bf4
:101b40000700187800f0fbfd692800d182e034dc42
:101b5000632800d1d7e01adc252800d1e4e0612811
:101b600058d0049b01220793002352420c920b93fe
:101b70000d9300930232e1e000f0f0fc0c90079b23
:101b80001a78303a092ad7d801330793f7e764283f
:101b900060d06728e5dc2a00390008a800f030fd95
:101ba000002800d1abe0079b0ba95a1c07921b78b9
:101bb00008aa300000f0e1fd3de0702800d17be094
:101bc00016dc6e2800d193e06f28cad12b000022ca
:101bd000390008a800f0ebfa002800d18fe0079b3d
:101be00008aa01330ba93000079300f0c4fd22e0de
:101bf000752840d078284ed07328b2d1802f00d0dd
:101c00007de0079b2a6801330793131d2b60126840
:101c1000002384e02a00390008a800f0f1fc002825
:101c200000d16ce0079b0ba95a1c07921b7808aaed
:101c3000300000f0a2fd2418039b1c19a34200dc15
:101c40007ee04f223f4b1a6001235b4203930398cf
:101c500031b0f0bd2b000122390008a800f0a7fa2e
:101c600000284cd0079b08aa01330ba9300007932a
:101c700000f081fddfe72b000022390008a800f00a
:101c800096fae0b3079b08aa01330ba9300007932b
:101c900000f071fdcfe72b000022390008a800f00a
:101ca00086fa60b3079b5a1c07921b7808aa0ba9f7
:101cb000300000f0e4f9bee72b000022f02108a874
:101cc00000f075fad8b1079b099a01330793089b76
:101cd00013435bb91c4800f0cbfc02000b9b1a4974
:101ce00000930d9b300000f054fba4e77823dde760
:101cf000039b39001a1908a82b0000f087fb079beb
:101d00000133079398e7802ff9d1079b013307939d
:101d10002b681a1d1b682a6008aa137001230ba9df
:101d2000300000f02cfd86e7802fe8d10122079bd0
:101d3000013307930b9b049300930d9b0349d1e759
:101d4000039474e6bc0000205a27000060270000be
:020000040000fa
:101d500080b582b000af786019e07b685b6843f2c1
:101d60000062ccf265429a187b685a607b681b68f7
:101d7000013305d07b681b685a1c7b681a6006e03b
:101d80007a684cf6ff13c3f69a33536007e07b681a
:101d90005a684cf6ff13c3f69a339a42ddd8c04610
:101da000bd4602b080bd80b582b000af78603960ba
:101db0007b681a683b681b689a4202d201235b4227
:101dc00019e07b681a683b681b689a4201d90123b5
:101dd00011e07b685a683b685b689a4202d2012333
:101de0005b4208e07b685a683b685b689a4201d9ad
:101df000012300e000231800bd4602b080bd80b57d
:101e000082b000af3a0040f29803c2f2000303cb65
:101e100003c23b005b6844f64032c0f24c029a18a1
:101e20003b005a600de03b005b6843f20062ccf27d
:101e300065429a183b005a603b001b685a1c3b00e5
:101e40001a603b005a684cf6ff13c3f69a339a4265
:101e5000e9d840f2a003c2f200031b685a1c40f20a
:101e6000a003c2f200031a6040f29803c2f200031a
:101e70003a0003ca03c340f2a003c2f200031b6886
:101e80005a1c40f2a003c2f200031a604ef2100383
:101e9000cef2000348f25812c0f215029a60c04612
:101ea000bd4602b080bd80b500af4ef21003cef249
:101eb00000034ef660225a604ef21003cef2000389
:101ec00048f25812c0f215029a604ef21003cef298
:101ed000000307221a60c046bd4680bd80b584b0ad
:101ee00000af786040f2a003c2f200031b68fb6001
:101ef0007a6840f29803c2f2000303cb03c240f2b7
:101f0000a003c2f200031b68fa689a42ead1c046f5
:101f1000bd4604b080bd90b587b000af78604ef28a
:101f20001003cef200039b684ef66022d31a7b6149
:101f30000c243b191800fff7d1ff20003b1859680b
:101f40007a6913005b019b1a9b009b18db001a0047
:101f50000c23b2fbf3f3ca183b185a600ee00c21b5
:101f60007b185b6843f20062ccf265429a187b18da
:101f70005a607b181b685a1c7b181a600c217b184e
:101f80005a684cf6ff13c3f69a339a42e7d87b6837
:101f90007a1803ca03c3c046bd4607b090bd80b5da
:101fa00088b000aff860b9607a6014217b18002215
:101fb0001a607b1800225a600023fb61bb681a6814
:101fc0007b681b689a4207d2bb681a687b681b68eb
:101fd000d21a7b181a6007e0bb681a687b681b6816
:101fe000d21a1423fb181a60bb681a687b681b6836
:101ff0009a4233d27b681a68bb681b68d31afb61ac
:1020000015e0fb6943f2006cccf2654c6344fb6164
:102010001422bb181b6823b9bb18012252421a6054
:1020200005e014217b181b685a1e7b181a60fa6998
:102030004cf6ff13c3f69a339a42e2d81422bb1827
:102040001b6823b9bb18012252421a600ee014210a
:102050007b181b685a1e7b181a6007e0bb685a6819
:102060007b685b68d21a1423fb185a60fb68142241
:0e207000ba1803ca03c3c046bd4608b080bdff
:020000040000fa
:10207e00f0b58fb00d934b680c9006938b680d00e6
:10208e000793cb6816000393069b0f68002b42db69
:10209e0002239f4310233b400a93079b04930a9b02
:1020ae003bb1726833681343079a13b11300023bb6
:1020be00049308233b400b935a1e9341049ad31a60
:1020ce0004933368039a0893736809932b695c1e13
:1020de0000231355069b0593012c1fdc0a9b002b36
:1020ee0050d10b9b1bb12023039a013c13552b6936
:1020fe0000975a1e039b121b19190c98079b00f090
:10210e0041f90c9b5b68db0503d56b68984200dade
:10211e0018000fb0f0bd01230693bbe7089b099a88
:10212e0013435bb9059b002b08dc069a049b9b1a94
:10213e00059a9b18002bd1ddbb07cfd50f23089a2c
:10214e00013c134018005730092b01dc30331800c6
:10215e000d9b413b192b06d820230343613b192bc2
:10216e0001d800f0ecfa039b1855059b013b059333
:10217e00099b1a07089b1b091a43099b08921b0906
:10218e000993a9e70cce1343002baad0039b0d9afb
:10219e001b19013b1a703023039a023c1355a0e71a
:020000040000fa
:1021ae0010b588293ad014dc81294ad003dc802965
:1021be0047d0002010bd822910d08429f9d119688a
:1021ce002ab30a1d1a6000228b5e0360db17436080
:1021de0010e0a0292ed00fdc9029ead1196807242f
:1021ee006ab30919a1430a0008321a600b684c68d9
:1021fe00036044600120dde7c02901d0f029d8d169
:10220e001a68111d1960136803600023dfe70c1da7
:10221e001c600b689bb203604260ebe7196822b149
:10222e000a1d1a600023cb56cfe70c1d1c600b68ed
:10223e00dbb2f0e71a68111d19601368c5e70731a4
:10224e00d0e719681ab10a1d1a600b68bde70c1d9c
:06225e001c600b68dfe7c5
:020000040000fa
:10226400dc00002004000000010000000000000069
:102274007c0000201c00000000000000a4000020de
:102284000800000000000000980000200c0000007e
:1022940000000000500000202c000000000000009e
:1022a400c00000201c00000001000000746573746d
:1022b400000000008419000094190000a419000013
:1022c400b4190000c4190000ac0000200c00000088
:1022d400000000000000002050000000000000008a
:1022e400b80000200800000000000000e00000200a
:1022f40004000000010000000000000000000000d5
:102304000000000066666666666666666666666601
:020000040000fa
:1023140040f20003c0f2000323b140f20003c0f214
:102324000003984740f20003c0f2000323b140f2d7
:102334000003c0f20003984700f048f940f200039c
:10234400c0f200037f2293434ef60052cef2000205
:10235400936042f27543c0f20003984740f20003d1
:10236400c0f2000323b140f20003c0f20003984717
:1023740040f20003c0f2000323b140f20003c0f2b4
:0e2384000003984700210020fff776f9fee7de
:020000040000fa
:10239200f0b51d00012389b014000e9a06001a4000
:1023a200039102920ab9a5420ad822000399300089
:1023b20000f03af9a54203d82500280009b0f0bd83
:1023c2002f1b01973a00102f00d91022202104a8b8
:1023d20000f08ff9019b0f2b0ed80f2204a93a406f
:1023e200300000f021f9029b002be6d12200039974
:1023f200300000f019f9e0e7102204a9300000f0e3
:0a24020013f9019b103b0193e4e77e
:020000040000fa
:10240c0010b584291fd007dc812915d0822922d050
:10241c00802911d0002010bd90291cd008dc8829ff
:10242c00f8d119680c1d1c600b6803601a7010e061
:10243c00a02901d0c029edd119680c1d1c600b68b6
:10244c0003601a6005e019680c1d1c600b680360c2
:10245c001a800120dfe719680c1d1c600b680360f3
:08246c001a60d2175a60f4e770
:020000040000fa
:1024740000230e4a10b513600d4a0e4c13600e4a29
:1024840013600e4a13600e4a13600e4a53621361be
:102494000133936000f073f900f071f90a4b9c4228
:1024a40000d310bd08cc9847f8e7c046b800002018
:1024b4000c0000206801000008000020000000203b
:0c24c40004000020100000206c0100004b
:020000040000fa
:1024d00030b51500012289b0524201920432ff3218
:1024e000029200b9684603900491002401b14c1e89
:1024f0000594002906da4f220120074b40421a605a
:1025000009b030bd00220790027006901a00290021
:0c25100001a800f0b9f8f3e7bc000020bf
:020000040000fa
:10251c0010b5054c227832b9044b13b1044800e0d5
:10252c0000bf0123237010bd7c00002000000000c0
:10253c0000000000034b10b51bb10349034800e039
:10254c0000bf10bd00000000800000200000000053
:020000040000fa
:10255c00030010b51a78202a0dd01100093904296e
:10256c0009d900212b2a02d02d2a01d101310133a6
:10257c0000200a2404e00133ece760430133801aa5
:0e258c001a78303a092af8d901b9404210bd38
:020000040000fa
:02259a00fee75a
:020000040000fa
:10259c0070b5040000200a4b4200d55c15b9d21866
:1025ac00507870bd216801300e78c0b2ae4204d1b3
:1025bc00034b0131d218507821600a28ebd9f0e78f
:0425cc00b62600002f
:020000040000fa
:1025d00010b50948016811b9436803b910bd04007a
:1025e0008368064a9bb20c349b009b5842682000cb
:1025f000984780002018ede764220000e0260000e4
:020000040000fa
:10260000002380290fdb812901dd83290bd10721dc
:10261000136807338b431900083111601a685b682f
:0a26200002604360012318007047b8
:020000040000fa
:10262a0070b505690400954200d915005db12a000c
:10263a00606900f064f8226963695b19551b00221e
:08264a00636125611a7070bd87
:020000040000fa
:10265200002310b5934206d103201840421e904138
:0e2662009b08c01810bdc45ccc540133f2e7d5
:020000040000fa
:10267000037833b1030001331a78002afbd1181a0a
:0826800070470020fce7c04692
:020000040000fa
:1026880013b50400019201aafff7c6f96368db06d7
:0826980001d50120404216bdee
:020000040000fa
:1026a0000cb407b504ab04cb0193fff711ff03b0e3
:0626b00008bc02b018474f
:020000040000fa
:1026b60068076c094c836a9074a07ac000806888a9
:0626c60000846c8200811b
:020000040000fa
:1026cc00ce050000de0500004c060000bc06000034
:0426dc002c070000c7
:020000040000fa
:1026e0001d270000532600007327000073270000f9
:0426f000732700004c
:020000040000fa
:1026f40032b10300c9b28218197001339342fbd17d
:042704007047c04614
:020000040000fa
:1027080010b52ab10023cc5cc45401339342fad1ea
:0427180010bdc046ea
:020000040000fa
:10271c008a18914201d10020704700230b700131bf
:02272c00f7e7cd
:020000040000fa
:10272e0010b5fff7a5fcfff73bfdfff768fe10bde8
:020000040000fa
:0e273e000300413b192b01d82023184370479c
:020000040000fa
:0e274c000300613b192b01d85f231840704732
:020000040000fa
:08275a00286e696c29002500be
:020000040000fa
:0827620010b5fff7ebff10bdfd
:020000040000fa
:08276a0010b5fff7eeff10bdf2
:020000040000fa
:04277200002070478c
:020000040000fa
:042776000020704788
:020000040000fa
:04277a000020704784
:020000040000fa
:04277e000020704780
:020000040000fa
:0227820070479e
:00000001FF
